:020000040800F2
:1000000008050020A10100081B130008D7110008F3
:1000100019130008D9020008BD16000800000000EE
:100020000000000000000000000000008D14000827
:10003000DB020008000000001D1300088F140008F8
:10004000BB010008BB010008BB010008BB010008A0
:10005000BB010008BB010008BB010008BB01000890
:10006000BB010008BB010008BB010008BB01000880
:10007000BB010008BB010008BB010008BB01000870
:10008000BB010008BB010008BB010008BB01000860
:10009000BB010008BB010008BB010008BB01000850
:1000A000BB010008BB010008BB010008BB01000840
:1000B000BB010008BB010008BB010008BB01000830
:1000C000BB010008BB010008BB010008BB01000820
:1000D000BB010008BB010008BB010008BB01000810
:1000E000BB010008BB010008BB010008BB01000800
:1000F000BB010008BB010008BB010008BB010008F0
:10010000BB010008BB010008BB010008BB010008DF
:10011000BB010008BB010008BB010008BB010008CF
:10012000BB010008BB010008BB010008BB010008BF
:10013000BB010008BB010008BB010008BB010008AF
:10014000BB010008BB010008BB010008BB0100089F
:10015000BB010008BB010008BB010008BB0100088F
:10016000BB010008BB010008BB010008BB0100087F
:10017000BB010008BB010008BB0100080000000033
:10018000BB010008BB010008DFF810D000F092F8B6
:10019000004800478D180008AFF3008008050020D4
:1001A0000648804706480047FEE7FEE7FEE7FEE711
:1001B000FEE7FEE7FEE7FEE7FEE7FEE7291500089B
:1001C000890100082DE9F05F0546002092469B4614
:1001D00088460646814640241BE02846414647465D
:1001E000224600F057F853465A46C01A914110D3A0
:1001F00011461846224600F03EF82D1A67EB01081A
:100200004F4622460120002100F035F817EB000987
:100210004E41201EA4F10104DFDC484631462A4647
:100220004346BDE8F09FD2B201E000F8012B491E21
:10023000FBD270470022F6E710B513460A46044683
:100240001946FFF7F0FF204610BD30B50B460146BA
:1002500000202022012409E021FA02F59D4205D365
:1002600003FA02F5491B04FA02F52844151EA2F10F
:100270000102F1DC30BD202A04DB203A00FA02F151
:10028000002070479140C2F1200320FA03F3194384
:1002900090407047202A04DB203A21FA02F0002126
:1002A000704721FA02F3D040C2F120029140084386
:1002B00019467047064C074D06E0E06840F0010320
:1002C00094E8070098471034AC42F6D3FFF760FF7C
:1002D0003C1900085C190008FEE7704772B6FEE79B
:1002E00070B5044600F00CF90546601C02D00448C5
:1002F0000078044400F004F9401BA042FAD370BD1A
:10030000000000202DE9F84FDFF8BCA100220125F4
:100310000AF1040B03264FF00F090BF1040E00BF86
:100320000B6805FA02F42340A34270D10F7907F05D
:100330000307012F01D0022F16D187684FEA420828
:1003400006FA08FC27EA0C07D1F80CC00CFA08FCE6
:100350004CEA070CC0F808C04768A7430C79C4F3FF
:10036000001494403C4344600C79E443A4070AD051
:10037000C4684FEA420C06FA0CF7BC438F6807FAD0
:100380000CF72743C7600C7904F00304022C12D148
:10039000D40800EB840CDCF820405707FF0E09FA64
:1003A00007F824EA0804D1F8108008FA07F848EAA8
:1003B0000408CCF8208004684FEA420C06FA0CF7D7
:1003C000BC430F7907F0030707FA0CF727430760D0
:1003D0004C6814F4403F70D03C4C276847F4804789
:1003E0002760246822F0030704F480440094384C0A
:1003F00007EB040CDCF8084897074FEA177809FA6E
:1004000008F7BC43334FB84202D1002724E054E040
:10041000314FB84201D101271EE0304FB84201D11F
:10042000022719E02E4FB84201D1032714E02D4FC7
:10043000B84201D104270FE02B4FB84201D1052764
:100440000AE02A4FB84201D1062705E0284FB842FA
:1004500001D1072700E0082707FA08F72743CCF85F
:100460000878DAF800405746D1F804C09C435FEAA8
:10047000CC3C00D51C433C60DBF800405F46D1F823
:1004800004C09C435FEA8C3C00D51C433C60DEF812
:1004900000407746D1F804C09C435FEACC2C00D5DD
:1004A0001C433C60084F0C373C68D1F804C09C43A7
:1004B0005FEA8C2C00D51C433C60521C102AFFF4D0
:1004C0002FAFBDE8F88F0000003C014044380240E7
:1004D00000300140000002400004024000080240D9
:1004E000000C0240001002400014024000180240BC
:1004F000001C02400AB1816170470904FBE700005B
:1005000001488068704700000000002002488168B0
:100510000278114481607047000000200B4810B53C
:10052000016841F400710160016841F4806101607B
:10053000016841F480710160032000F061F80F2030
:1005400000F006F800F024F8002010BD003C024046
:1005500070B50D4D04464FF47A712878B1FBF0F078
:100560000A490968B1FBF0F000F060FD48B9102CB1
:1005700007D200222146501E00F022F800206C60B5
:1005800070BD012070BD0000000000200C000020A4
:100590000A4808B5016841F480410160006800F430
:1005A000804000900548001F016841F080510160C3
:1005B000006800F08050009008BD00004438024000
:1005C000F0B40E4B1B680C46C3F30223C3F10705BE
:1005D000042D00D90425191D072901D2002300E0AC
:1005E000DB1E012606FA05F1491E214099409E4076
:1005F000761E16403143F0BC01F072B80CED00E0FD
:10060000064900F0070208684FF6FF03184040EA69
:100610000220034A10430860704700000CED00E020
:100620000000FA052DE9F0470E46050065D0DFF819
:100630001481D8F80000F7B200F00700B04207D2EA
:1006400088F80070D8F8000000F00700B04254D1DC
:1006500028683D4C810712D5400703D5206840F437
:10066000E05020602878000703D5206840F46040FF
:1006700020602068A96820F0F000084320602878F6
:10068000C0072DD0304968680839012812D00228E7
:1006900013D0032811D00968890700292DDA2168B1
:1006A00021F0030101432160FFF72AFF814641F257
:1006B000883A0EE009688903EFE709688901ECE7E9
:1006C000FFF71EFFA0EB0901514502D90320BDE849
:1006D000F0872068696800F00C00B0EB810FEFD163
:1006E000D8F80010404601F00701B14207D9077061
:1006F000006800F00700B04201D00120E7E7287849
:10070000400705D52068E96820F4E05008432060E0
:100710002878000706D52068296920F4604040EA5F
:10072000C100206000F038F82168084AC1F30311C5
:10073000515CC8400649086006480068FFF708FF9A
:100740000020C4E7003C0240083802402419000899
:100750000C000020040000200448054900680968D6
:10076000044AC1F38221515CC84070470C0000204C
:10077000083802403419000804480549006809682F
:10078000044AC1F34231515CC84070470C0000205C
:100790000838024034190008154810B5006810F0F8
:1007A0000C02144813D04110042A0FD0082A0ED18D
:1007B0000F4C241F2268236802F03F025B0207D51A
:1007C0002068C0F38810A0FB010106E0084610BDB8
:1007D0002168C1F38811A1FB00010023FFF7F2FC9F
:1007E0002168C1F30141491C4900B0FBF1F010BD83
:1007F000083802400024F4002DE9F84F04006ED0C0
:100800002078DFF84C93C007A9F104054AD009F11C
:1008100004000168C1F38101012908D00068C0F318
:10082000810002280AD1D9F80000400206D52868C4
:10083000800337D560680028E1D033E06068B0F508
:10084000803F10D0B0F5A02F286810D020F4803061
:100850002860286820F4802028606068A8B1FFF72D
:100860004FFE06460DE0286840F48030F4E740F47F
:1008700080202860F7E700BFFFF742FE801B642856
:1008800073D828688003F7D50CE0FFF739FE0646D9
:1008900005E000BFFFF734FE801B6428F0D828680D
:1008A0008003F7D42078DFF8AC8280074FF0000A8D
:1008B0003ED5A748001D016811F00C0F08D0006854
:1008C000C0F3810002280BD1D9F80000400207D400
:1008D0002868800716D5E068012800D112E033E1CE
:1008E000E068B8B10120C8F80000FFF709FE06462D
:1008F00005E000BFFFF704FE801B0228C0D828686F
:100900008007F7D52868216920F0F80040EAC10087
:1009100028600DE0C8F800A0FFF7F2FD064604E0ED
:10092000FFF7EEFD801B02281FD828688007F7D448
:100930002078000722D5864F87486169703771B1EA
:1009400001210160FFF7DCFD064604E0FFF7D8FD5A
:10095000801B022809D838688007F7D50EE0C0F858
:1009600000A0FFF7CDFD064605E082E0FFF7C8FDD9
:10097000801B02287DD838688007F7D4207840078C
:1009800068D5DFF8CCB100270BF13C0BDBF8000099
:10099000C0000BD4DBF8001041F08051CBF8001000
:1009A000DBF80000012700F0805000906B4E3068AB
:1009B000C00510D4306840F480703060FFF7A0FDAF
:1009C000009005E0FFF79CFD0099401A022850D8DE
:1009D0003068C005F6D55E4EA0686C3601280FD091
:1009E0000528306810D020F001003060306820F019
:1009F00004003060A068B8B1FFF782FD00900FE0FE
:100A0000306840F00100F4E740F004003060F7E7A0
:100A1000FFF776FD0099411A41F28830814266D88D
:100A200030688007F4D50EE0FFF76AFD009007E01C
:100A3000FFF766FD0099411A41F28830814256D88D
:100A400030688007F4D42FB1DBF8001021F080511A
:100A5000CBF80010A069C8B33D49091D0968C1F36E
:100A6000810102294AD00228504607D0C8F8600008
:100A700000E03CE0FFF744FD04463BE04746C8F891
:100A80006000FFF73DFD064605E000BFFFF738FDBB
:100A9000801B02282BD828688001F7D4D4E90701ED
:100AA0000843A16A2E4A490802EB0141626A41EA01
:100AB0008211084394F82C1040EA0161C9F8001033
:100AC00001203866FFF71CFD044606E03EE000BF4B
:100AD000FFF716FD001B022809D828688001F7D50A
:100AE00034E000BFFFF70CFD001B022802D90320F1
:100AF000BDE8F88F28688001F4D427E00128F7D0FA
:100B0000D9F80000E26900F4800191421CD1226A08
:100B100000F03F01914217D147F6C071626A01406F
:100B2000B1EB821F10D1A26A4FF0FF3300F44031C5
:100B300003EB5202B1EB024F06D194F82C1000F0F7
:100B40007060B0EB016F01D00120D1E70020CFE74A
:100B50000438024000004742800E474200700040C7
:100B60000000FFFF70B5040009D0606A002540B1A5
:100B700025616561A56294F8510040B10CE0012047
:100B800070BD6068B0F5827FF4D0E561F2E784F86B
:100B90005050204600F044F8022084F851002068AC
:100BA000016821F040010160A088218900F4827071
:100BB00001F404410843A18901F400610843217C48
:100BC00001F002010843217D01F001010843218B5E
:100BD00001F400710843217F01F03801084394F8C3
:100BE000201001F080010843218D01F400510843D9
:100BF00021680860A069042101EA104094F82410DB
:100C000001F010010843216848602068C16921F49F
:100C10000061C1616565012084F85100002070BD4C
:100C2000F0B587B0044614216846FFF703FB2A4A53
:100C3000216800242948022503260527914217D15F
:100C4000264914310A6842F480520A60096801F4A6
:100C500080510591016841F0010101600068694619
:100C600000F001000590F020CDE900051C482CE0C3
:100C70001C4A91422ED1194910310A6842F480422F
:100C80000A60096801F480410591016841F004019E
:100C90000160016801F004010591016841F0020161
:100CA0000160006802AA00F0020005900C20CDE966
:100CB000000582E8D00069460B48FFF723FB4FF49C
:100CC000A050CDE900050948694602AA82E8D00093
:100CD000FFF718FB07B0F0BD00300140303802408C
:100CE00000000240003800400008024000040240BA
:100CF0002DE9F84F044640680025984616460F46F1
:100D00004FF0040BB0F5827F01D1A06888B194F850
:100D10005000012818D0012084F85000FFF7F0FBA4
:100D2000814694F851004FF0000A01280ED00225A8
:100D300082E084F851B013460A462046CDF8008080
:100D400000F083F8BDE8F88F0220FBE7002F72D097
:100D5000002E70D084F851B0C4F854A0A763A687C1
:100D6000E687C4F830A0A4F834A0A4F836A0C4F8EC
:100D700040A0C4F844A0A068B0F5004F09D1206895
:100D8000016821F0400101602068016821F4804180
:100D9000016020680168490603D4016841F0400100
:100DA0000160E068D8B139E020688168C90709D0DE
:100DB000007BA16B0870A06B401CA063E08F401EFD
:100DC000E0870CE0FFF79CFBA0EB0901414503D352
:100DD000B8F1FF3F03D036E0B8F1000F33D0E08F19
:100DE0000028E1D11DE020688168C90709D0C068EA
:100DF000A16B0880A06B801CA063E08F401EE08781
:100E00000CE0FFF77DFBA0EB0901414503D3B8F1EE
:100E1000FF3F03D017E0B8F1000F14D0E08F002897
:100E2000E1D14A464146204600F079FA08B1202037
:100E30006065606D00B10125012084F8510084F8DF
:100E400050A028467EE70325F6E72DE9F84F044633
:100E500090F8500000270A9E1D4692468B464FF0A0
:100E6000010901280ED0012084F85000FFF748FB4B
:100E7000804694F85100616801280CD0B1F5827F5A
:100E800007D102E00220BDE8F88FA16809B9042863
:100E900001D00227C2E0BBF1000F27D0BAF1000F4A
:100EA00024D01DB394F85100042802D0052084F802
:100EB000510000206065C4F838A0E587A587C4F814
:100EC00030B0E586A5862064606420680168490624
:100ED00003D4016841F040010160E068B0F5006FA3
:100EE000606805D0E8B3012D46D07FE0012795E08A
:100EF00008B1012D39D1206B21680088C860206BB2
:100F0000801C2063E08E401EE0862EE02068816811
:100F100089070FD5E18E69B1B9F1010F0AD1216BB3
:100F20000988C160206B801C2063E08E401EE08633
:100F30004FF0000920688168C9070CD0E18F51B1DA
:100F4000C068A16B0880A06B801CA063E08F401E6E
:100F5000E0874FF00109FFF7D3FAA0EB0800B04299
:100F600000E009E001D3701C50D1E08E0028CDD103
:100F7000E08F0028CAD13FE0206B21680078087319
:100F8000206B401C2063E08E401EE0862EE020682F
:100F9000816889070FD5E18E69B1B9F1010F0AD1D6
:100FA000216B09780173206B401C2063E08E401E8A
:100FB000E0864FF0000920688168C9070CD0E18FF6
:100FC00051B1C068A16B0870A06B401CA063E08F9A
:100FD000401EE0874FF00109FFF792FAA0EB0800EE
:100FE000B04202D3701C01D010E07EB1E08E002828
:100FF000CDD1E08F0028CAD142463146204600F0CC
:10100000BDF928B101272020606507E0032705E02E
:10101000A06818B92068C16880680090012084F831
:101020005100002084F8500038462CE710B5401ECF
:10103000B0F1807F01D3012010BD4FF0E02460614A
:101040000F21601700F04CFB0020A06107202061F9
:10105000002010BD70B5040004D094F83D000025B8
:1010600010B106E0012070BD84F83C50204600F02D
:1010700023F8242084F83D002068C16821F4005141
:10108000C160204600F058FA2068016921F49041BF
:1010900001612068416921F02A0141612068C1682D
:1010A00041F40051C1602564202084F83D0084F89B
:1010B0003E00002070BD000010B586B0044614212B
:1010C0006846FFF7B7F814492068884221D11348D1
:1010D0000021026842F010020260006800F0100077
:1010E00005900E481438026842F001020260006860
:1010F00000F0010005904FF4C06000900220CDE99F
:101100000101032003900720049069460448FFF77B
:10111000F9F806B010BD000000100140443802404C
:10112000000002402DE9F843044690F83D001F46B8
:1011300016460D4620284CD1C5B1BEB194F83C00EE
:10114000012846D0012084F83C004FF00008C4F884
:101150004080212084F83D00FFF7D2F9A684814623
:10116000E684A068B0F5805F03D004E00120BDE80C
:10117000F883206928B12E465FF0000584F83C8092
:101180000EE00026FAE78021204600F05BFAA0B9C5
:10119000AEB116F8010B21684860E08C401EE08477
:1011A000E08C4B464FF0000200970028EBD14FF047
:1011B0004001204600F046FA30B10320D7E735F869
:1011C000020BC0F30800E6E7202084F83D00002071
:1011D000CDE70220CBE7FEE730B587B014216846A3
:1011E000FFF728F81A48016841F0800101600168A2
:1011F00001F080010591016841F00401016001687E
:1012000001F004010591016841F0010101600168EC
:1012100001F001010591016841F0020101600068DF
:10122000012200F002000B4D540305902146284690
:10123000FFF760F90120CDE9004002200290032071
:10124000039069462846FFF75DF807B030BD0000FF
:1012500030380240000402400F4810B50D490160CB
:1012600000214FF400624160C0E9021202220261D3
:101270000122C0E905210162416281620A21C16245
:10128000FFF770FC002803D0BDE81040FFF726B838
:1012900010BD000000300140140000200F4810B5C0
:1012A0000D49016000214FF400624160C0E9021263
:1012B000022202610122C0E90521016241628162CC
:1012C0000A21C162FFF74EFC002803D0BDE81040A0
:1012D000FFF704B810BD0000003800406C0000208B
:1012E0000C4810B50A4901604FF4E131416000211A
:1012F00081600C22C160C0E904128161C161FFF705
:10130000A9FE002803D0BDE81040FEF7E7BF10BDDE
:1013100000100140C4000020FEE7FEE77047F8B56A
:10132000044640684FF48273984221D1A0684FF47C
:101330008065B0F5004F01D0A8420AD12068066848
:1013400026F0400606606068984211D1A068A84265
:101350000ED000920B4600228021204600F03AF881
:10136000002804D0606D40F0200060650320F8BDC7
:1013700000920B4600220121EFE7000038B5044639
:101380001248134B0068B0FBF3F04FF47A735843E4
:1013900000906068B0F5827F0DD10B46009200226C
:1013A0008021204600F016F870B1606D40F02000FA
:1013B0006065032038BD009830B1401E0090206861
:1013C0008068C0430006F6D5002038BD0C00002020
:1013D00000366E012DE9F8431E46914688460446C4
:1013E000089DFFF78DF8401B351AFFF789F807466F
:1013F00025480068C0F3CB30684338E0701C37D014
:10140000FFF77EF8C01BA84203D215B1009860B365
:101410002CE02068416821F0E00141606068B0F58F
:10142000827F0BD1A068B0F5004F02D0B0F5806F7D
:1014300004D12068016821F040010160A06AB0F584
:10144000005F09D12068016821F400510160206823
:10145000016841F400510160012084F8510000202E
:1014600084F850000320BDE8F8830025401E00905A
:101470002068816838EA010004D000214945BDD1C7
:101480000020F0E70121F9E70C0000207047FFF78A
:101490003DB8000030B593B030216846FEF7CAFE73
:1014A00014210CA8FEF7C6FE1D480025016841F076
:1014B00080510160006800F0805011901948016867
:1014C00041F4804101600068022400F480401190E2
:1014D00001200090000401908001CDE9064008AA97
:1014E0000420A82182E813000B906846FFF784F9D6
:1014F00008B172B6FEE70CA90F2081E831004FF465
:10150000A0500F904FF48050109005210CA8FFF7C9
:1015100089F8002801D072B6FEE713B030BD000094
:1015200040380240007000400248016841F47001F8
:101530000160704788ED00E070B5044600680169FD
:10154000E26821F44051114301612169A068E26918
:1015500008436169114308432168CA6849F20C6372
:101560009A430243CA6020684169A26921F440712C
:101570001143416131492068884202D03049884294
:1015800002D1FFF7F9F801E0FFF7E6F8E26900237E
:10159000192164253226B2F5004F626828D0A0FBDD
:1015A0000101930F9200FEF70DFE0146B0FBF5F02E
:1015B0006FF01802504301EB800006EB0010B0FB07
:1015C000F5F000F0F002B1FBF5F002EB0012B1FB18
:1015D000F5F06FF01803584301EB800006EB0010A4
:1015E000B0FBF5F000F00F0021681044886070BD7A
:1015F000A0FB010192185B41FEF7E4FD0146B0FB40
:10160000F5F00201B1FBF5F06FF01803584301EB60
:10161000800006EBC000B0FBF5F000F0F80002EB34
:101620004002B1FBF5F0584301EB800006EBC0002F
:10163000B0FBF5F000F00700D6E700000010014015
:10164000001401402DE9F041984617460E46044625
:10165000069D27E0681C25D02DB1FEF751FFA0EBB9
:101660000800A8421ED920680C3050E8001F21F461
:10167000D07140E80012002AF5D12068143050E8FB
:10168000001F21F0010140E80012002AF5D12020BE
:1016900084F83D0084F83E00002084F83C000320DC
:1016A000BDE8F0812068006836EA000004D0002020
:1016B000B842CFD00020F3E70120F9E7FEE70000B1
:1016C0000FB4054B10B503A9044A029800F028F89E
:1016D00010BC5DF814FB0000751800081000002015
:1016E0000907090E002804DB00F1E02080F800144F
:1016F000704700F00F0000F1E02080F8141D7047E3
:1017000002E008C8121F08C1002AFAD170477047CA
:10171000002001E001C1121F002AFBD17047000028
:101720002DE9FF4F89B09B460446002506E0252899
:101730000BD05A460B999047641C6D1C20780028EA
:10174000F5D10DB02846BDE8F08F0027B84601223C
:10175000474900E0074314F8013F203B02FA03F039
:101760000842F7D120782E2819D114F8010F47F03C
:1017700004072A280ED06FF02F022078A0F1300144
:1017800009290CD808EB880102EB410100EB0108A4
:10179000641CF2E70A98641C50F8048B0A902078C5
:1017A0000028CED0642808D0692806D075281ED01D
:1017B0005A460B9990476D1C58E00A994FF00A0958
:1017C00001C90A91002802DA40422D2102E03905C0
:1017D00004D52B218DF82010012103E0F90704D056
:1017E0002021F7E78A4608AE0DE00021FAE70A99C2
:1017F0004FF00A0901C90A91F7E74946FEF725FDAE
:10180000303106F8011D0028F7D1ADEB060000F1DC
:101810002009780701D44FF00108C84502DDA8EB84
:10182000090000E000208046002706E008A85A468C
:10183000C05D0B9990476D1C7F1C5745F6DB04E09B
:1018400030205A460B9990476D1CB8F10001A8F161
:101850000108F5DC05E016F8010B5A460B99904794
:101860006D1CB9F10001A9F10109F4DC641C65E704
:101870000928010013B54FF6FF730122694602489B
:10188000FFF750FC00981CBDC4000020ADF5167D8C
:10189000FEF744FEFFF7FEFDFFF79EFCFFF7FEFCA0
:1018A000FFF71EFDFFF7D8FC4FF47A70FEF718FD26
:1018B0004FF416716846FEF7BDFCDFF858804FF410
:1018C000005640F203196D464FF481774FF4FA6ADF
:1018D0000022314644464046FEF70CFE6420FEF7E7
:1018E000FFFC012231462046FEF704FEFF234A4654
:1018F00069460948FFF7FCF95FF0020407A035F8D4
:101900001410FFF7DDFE641CBC42F7DB5046FEF707
:10191000E7FCDDE7000402401400002025640D0A06
:1019200000000000000000000000000001020304AD
:101930000607080900000000010203045C19000802
:1019400000000020140000000017000870190008B3
:1019500014000020F404000010170008010000002B
:1019600010000000000000000024F400000000004F
:040000050800018965
:00000001FF
